{
  "_format": "hh-sol-artifact-1",
  "contractName": "PostRegistry",
  "sourceName": "contracts/PostRegistry.sol",
  "abi": [
    {
      "inputs": [
        {
          "internalType": "address",
          "name": "_pointsSystem",
          "type": "address"
        }
      ],
      "stateMutability": "nonpayable",
      "type": "constructor"
    },
    {
      "anonymous": false,
      "inputs": [
        {
          "indexed": true,
          "internalType": "uint256",
          "name": "postId",
          "type": "uint256"
        },
        {
          "indexed": true,
          "internalType": "address",
          "name": "author",
          "type": "address"
        },
        {
          "indexed": false,
          "internalType": "string",
          "name": "arweaveId",
          "type": "string"
        },
        {
          "indexed": false,
          "internalType": "string",
          "name": "contentType",
          "type": "string"
        },
        {
          "indexed": false,
          "internalType": "uint256",
          "name": "timestamp",
          "type": "uint256"
        }
      ],
      "name": "PostCreated",
      "type": "event"
    },
    {
      "anonymous": false,
      "inputs": [
        {
          "indexed": true,
          "internalType": "uint256",
          "name": "postId",
          "type": "uint256"
        },
        {
          "indexed": true,
          "internalType": "address",
          "name": "liker",
          "type": "address"
        },
        {
          "indexed": false,
          "internalType": "uint256",
          "name": "newLikeCount",
          "type": "uint256"
        }
      ],
      "name": "PostLiked",
      "type": "event"
    },
    {
      "inputs": [],
      "name": "MAX_DAILY_POSTS",
      "outputs": [
        {
          "internalType": "uint256",
          "name": "",
          "type": "uint256"
        }
      ],
      "stateMutability": "view",
      "type": "function"
    },
    {
      "inputs": [
        {
          "internalType": "string",
          "name": "arweaveId",
          "type": "string"
        },
        {
          "internalType": "string",
          "name": "contentType",
          "type": "string"
        }
      ],
      "name": "createPost",
      "outputs": [
        {
          "internalType": "uint256",
          "name": "",
          "type": "uint256"
        }
      ],
      "stateMutability": "nonpayable",
      "type": "function"
    },
    {
      "inputs": [
        {
          "internalType": "address",
          "name": "",
          "type": "address"
        }
      ],
      "name": "dailyPostCount",
      "outputs": [
        {
          "internalType": "uint256",
          "name": "",
          "type": "uint256"
        }
      ],
      "stateMutability": "view",
      "type": "function"
    },
    {
      "inputs": [
        {
          "internalType": "uint256",
          "name": "postId",
          "type": "uint256"
        }
      ],
      "name": "getPost",
      "outputs": [
        {
          "components": [
            {
              "internalType": "uint256",
              "name": "id",
              "type": "uint256"
            },
            {
              "internalType": "address",
              "name": "author",
              "type": "address"
            },
            {
              "internalType": "string",
              "name": "arweaveId",
              "type": "string"
            },
            {
              "internalType": "string",
              "name": "contentType",
              "type": "string"
            },
            {
              "internalType": "uint256",
              "name": "createdAt",
              "type": "uint256"
            },
            {
              "internalType": "uint256",
              "name": "likes",
              "type": "uint256"
            },
            {
              "internalType": "bool",
              "name": "exists",
              "type": "bool"
            }
          ],
          "internalType": "struct PostRegistry.Post",
          "name": "",
          "type": "tuple"
        }
      ],
      "stateMutability": "view",
      "type": "function"
    },
    {
      "inputs": [
        {
          "internalType": "uint256",
          "name": "offset",
          "type": "uint256"
        },
        {
          "internalType": "uint256",
          "name": "limit",
          "type": "uint256"
        }
      ],
      "name": "getRecentPosts",
      "outputs": [
        {
          "components": [
            {
              "internalType": "uint256",
              "name": "id",
              "type": "uint256"
            },
            {
              "internalType": "address",
              "name": "author",
              "type": "address"
            },
            {
              "internalType": "string",
              "name": "arweaveId",
              "type": "string"
            },
            {
              "internalType": "string",
              "name": "contentType",
              "type": "string"
            },
            {
              "internalType": "uint256",
              "name": "createdAt",
              "type": "uint256"
            },
            {
              "internalType": "uint256",
              "name": "likes",
              "type": "uint256"
            },
            {
              "internalType": "bool",
              "name": "exists",
              "type": "bool"
            }
          ],
          "internalType": "struct PostRegistry.Post[]",
          "name": "",
          "type": "tuple[]"
        }
      ],
      "stateMutability": "view",
      "type": "function"
    },
    {
      "inputs": [
        {
          "internalType": "address",
          "name": "user",
          "type": "address"
        }
      ],
      "name": "getUserPostIds",
      "outputs": [
        {
          "internalType": "uint256[]",
          "name": "",
          "type": "uint256[]"
        }
      ],
      "stateMutability": "view",
      "type": "function"
    },
    {
      "inputs": [
        {
          "internalType": "uint256",
          "name": "",
          "type": "uint256"
        },
        {
          "internalType": "address",
          "name": "",
          "type": "address"
        }
      ],
      "name": "hasLiked",
      "outputs": [
        {
          "internalType": "bool",
          "name": "",
          "type": "bool"
        }
      ],
      "stateMutability": "view",
      "type": "function"
    },
    {
      "inputs": [
        {
          "internalType": "address",
          "name": "",
          "type": "address"
        }
      ],
      "name": "lastPostDay",
      "outputs": [
        {
          "internalType": "uint256",
          "name": "",
          "type": "uint256"
        }
      ],
      "stateMutability": "view",
      "type": "function"
    },
    {
      "inputs": [
        {
          "internalType": "uint256",
          "name": "postId",
          "type": "uint256"
        }
      ],
      "name": "likePost",
      "outputs": [],
      "stateMutability": "nonpayable",
      "type": "function"
    },
    {
      "inputs": [],
      "name": "owner",
      "outputs": [
        {
          "internalType": "address",
          "name": "",
          "type": "address"
        }
      ],
      "stateMutability": "view",
      "type": "function"
    },
    {
      "inputs": [],
      "name": "pointsSystem",
      "outputs": [
        {
          "internalType": "contract IPointsSystem",
          "name": "",
          "type": "address"
        }
      ],
      "stateMutability": "view",
      "type": "function"
    },
    {
      "inputs": [
        {
          "internalType": "uint256",
          "name": "",
          "type": "uint256"
        }
      ],
      "name": "posts",
      "outputs": [
        {
          "internalType": "uint256",
          "name": "id",
          "type": "uint256"
        },
        {
          "internalType": "address",
          "name": "author",
          "type": "address"
        },
        {
          "internalType": "string",
          "name": "arweaveId",
          "type": "string"
        },
        {
          "internalType": "string",
          "name": "contentType",
          "type": "string"
        },
        {
          "internalType": "uint256",
          "name": "createdAt",
          "type": "uint256"
        },
        {
          "internalType": "uint256",
          "name": "likes",
          "type": "uint256"
        },
        {
          "internalType": "bool",
          "name": "exists",
          "type": "bool"
        }
      ],
      "stateMutability": "view",
      "type": "function"
    },
    {
      "inputs": [
        {
          "internalType": "address",
          "name": "_pointsSystem",
          "type": "address"
        }
      ],
      "name": "setPointsSystem",
      "outputs": [],
      "stateMutability": "nonpayable",
      "type": "function"
    },
    {
      "inputs": [],
      "name": "totalPosts",
      "outputs": [
        {
          "internalType": "uint256",
          "name": "",
          "type": "uint256"
        }
      ],
      "stateMutability": "view",
      "type": "function"
    },
    {
      "inputs": [
        {
          "internalType": "address",
          "name": "",
          "type": "address"
        },
        {
          "internalType": "uint256",
          "name": "",
          "type": "uint256"
        }
      ],
      "name": "userPostIds",
      "outputs": [
        {
          "internalType": "uint256",
          "name": "",
          "type": "uint256"
        }
      ],
      "stateMutability": "view",
      "type": "function"
    }
  ],
  "bytecode": "0x60806040523480156200001157600080fd5b5060405162002a1438038062002a14833981810160405281019062000037919062000129565b33600160006101000a81548173ffffffffffffffffffffffffffffffffffffffff021916908373ffffffffffffffffffffffffffffffffffffffff160217905550806000806101000a81548173ffffffffffffffffffffffffffffffffffffffff021916908373ffffffffffffffffffffffffffffffffffffffff160217905550506200015b565b600080fd5b600073ffffffffffffffffffffffffffffffffffffffff82169050919050565b6000620000f182620000c4565b9050919050565b6200010381620000e4565b81146200010f57600080fd5b50565b6000815190506200012381620000f8565b92915050565b600060208284031215620001425762000141620000bf565b5b6000620001528482850162000112565b91505092915050565b6128a9806200016b6000396000f3fe608060405234801561001057600080fd5b50600436106100f45760003560e01c80634025681a11610097578063725009d311610066578063725009d3146102d75780638da5cb5b146102f35780638e53fb41146103115780638fb7092c1461032f576100f4565b80634025681a1461021757806340731c241461024757806341f958a614610277578063636f5446146102a7576100f4565b8063198aa745116100d3578063198aa7451461017b57806319e771681461019957806331156d9e146101c9578063392338f5146101e7576100f4565b806265b14c146100f95780630b0da663146101295780630b1e7f8314610145575b600080fd5b610113600480360381019061010e919061171a565b61035f565b6040516101209190611760565b60405180910390f35b610143600480360381019061013e919061171a565b610377565b005b61015f600480360381019061015a91906117a7565b61044a565b604051610172979695949392919061188e565b60405180910390f35b6101836105c9565b6040516101909190611760565b60405180910390f35b6101b360048036038101906101ae919061171a565b6105ce565b6040516101c091906119c9565b60405180910390f35b6101d1610665565b6040516101de9190611a4a565b60405180910390f35b61020160048036038101906101fc9190611aca565b610689565b60405161020e9190611760565b60405180910390f35b610231600480360381019061022c9190611b4b565b610cf0565b60405161023e9190611d58565b60405180910390f35b610261600480360381019061025c91906117a7565b611016565b60405161026e9190611e1d565b60405180910390f35b610291600480360381019061028c919061171a565b611259565b60405161029e9190611760565b60405180910390f35b6102c160048036038101906102bc9190611e3f565b611271565b6040516102ce9190611760565b60405180910390f35b6102f160048036038101906102ec91906117a7565b6112a2565b005b6102fb611602565b6040516103089190611e7f565b60405180910390f35b610319611628565b6040516103269190611760565b60405180910390f35b61034960048036038101906103449190611e9a565b61162e565b6040516103569190611eda565b60405180910390f35b60076020528060005260406000206000915090505481565b600160009054906101000a900473ffffffffffffffffffffffffffffffffffffffff1673ffffffffffffffffffffffffffffffffffffffff163373ffffffffffffffffffffffffffffffffffffffff1614610407576040517f08c379a00000000000000000000000000000000000000000000000000000000081526004016103fe90611f41565b60405180910390fd5b806000806101000a81548173ffffffffffffffffffffffffffffffffffffffff021916908373ffffffffffffffffffffffffffffffffffffffff16021790555050565b60036020528060005260406000206000915090508060000154908060010160009054906101000a900473ffffffffffffffffffffffffffffffffffffffff169080600201805461049990611f90565b80601f01602080910402602001604051908101604052809291908181526020018280546104c590611f90565b80156105125780601f106104e757610100808354040283529160200191610512565b820191906000526020600020905b8154815290600101906020018083116104f557829003601f168201915b50505050509080600301805461052790611f90565b80601f016020809104026020016040519081016040528092919081815260200182805461055390611f90565b80156105a05780601f10610575576101008083540402835291602001916105a0565b820191906000526020600020905b81548152906001019060200180831161058357829003601f168201915b5050505050908060040154908060050154908060060160009054906101000a900460ff16905087565b601481565b6060600460008373ffffffffffffffffffffffffffffffffffffffff1673ffffffffffffffffffffffffffffffffffffffff16815260200190815260200160002080548060200260200160405190810160405280929190818152602001828054801561065957602002820191906000526020600020905b815481526020019060010190808311610645575b50505050509050919050565b60008054906101000a900473ffffffffffffffffffffffffffffffffffffffff1681565b60008085859050116106d0576040517f08c379a00000000000000000000000000000000000000000000000000000000081526004016106c79061200d565b60405180910390fd5b6040518060400160405280600481526020017f746578740000000000000000000000000000000000000000000000000000000081525080519060200120838360405161071d92919061206c565b6040518091039020148061078357506040518060400160405280600581526020017f696d61676500000000000000000000000000000000000000000000000000000081525080519060200120838360405161077992919061206c565b6040518091039020145b6107c2576040517f08c379a00000000000000000000000000000000000000000000000000000000081526004016107b9906120d1565b60405180910390fd5b600062015180426107d3919061214f565b905080600660003373ffffffffffffffffffffffffffffffffffffffff1673ffffffffffffffffffffffffffffffffffffffff16815260200190815260200160002054146108a55780600660003373ffffffffffffffffffffffffffffffffffffffff1673ffffffffffffffffffffffffffffffffffffffff168152602001908152602001600020819055506000600760003373ffffffffffffffffffffffffffffffffffffffff1673ffffffffffffffffffffffffffffffffffffffff168152602001908152602001600020819055505b6014600760003373ffffffffffffffffffffffffffffffffffffffff1673ffffffffffffffffffffffffffffffffffffffff1681526020019081526020016000205410610927576040517f08c379a000000000000000000000000000000000000000000000000000000000815260040161091e906121cc565b60405180910390fd5b600760003373ffffffffffffffffffffffffffffffffffffffff1673ffffffffffffffffffffffffffffffffffffffff1681526020019081526020016000206000815480929190610977906121ec565b9190505550600060026000815480929190610991906121ec565b9190505590506040518060e001604052808281526020013373ffffffffffffffffffffffffffffffffffffffff16815260200188888080601f016020809104026020016040519081016040528093929190818152602001838380828437600081840152601f19601f82011690508083019250505050505050815260200186868080601f016020809104026020016040519081016040528093929190818152602001838380828437600081840152601f19601f8201169050808301925050505050505081526020014281526020016000815260200160011515815250600360008381526020019081526020016000206000820151816000015560208201518160010160006101000a81548173ffffffffffffffffffffffffffffffffffffffff021916908373ffffffffffffffffffffffffffffffffffffffff1602179055506040820151816002019081610ae59190612405565b506060820151816003019081610afb9190612405565b506080820151816004015560a0820151816005015560c08201518160060160006101000a81548160ff021916908315150217905550905050600460003373ffffffffffffffffffffffffffffffffffffffff1673ffffffffffffffffffffffffffffffffffffffff16815260200190815260200160002081908060018154018082558091505060019003906000526020600020016000909190919091505560006040518060400160405280600581526020017f696d616765000000000000000000000000000000000000000000000000000000815250805190602001208686604051610be892919061206c565b604051809103902014610bfc57600a610bff565b600f5b60ff16905060008054906101000a900473ffffffffffffffffffffffffffffffffffffffff1673ffffffffffffffffffffffffffffffffffffffff1663290ab9ab33836040518363ffffffff1660e01b8152600401610c5f929190612523565b600060405180830381600087803b158015610c7957600080fd5b505af1925050508015610c8a575060015b503373ffffffffffffffffffffffffffffffffffffffff16827f1947cbf766c888fc9c5f4256cf388fe32d4901ff5bd47d3a4d5318af978cddbe8a8a8a8a42604051610cda95949392919061258c565b60405180910390a3819350505050949350505050565b606060006002549050808410610d5d57600067ffffffffffffffff811115610d1b57610d1a612234565b5b604051908082528060200260200182016040528015610d5457816020015b610d4161165d565b815260200190600190039081610d395790505b50915050611010565b60008482610d6b91906125d5565b90506000848211610d7d576000610d8a565b8482610d8991906125d5565b5b905060008183610d9a91906125d5565b905060008167ffffffffffffffff811115610db857610db7612234565b5b604051908082528060200260200182016040528015610df157816020015b610dde61165d565b815260200190600190039081610dd65790505b50905060005b8281101561100657600360008286610e0f9190612609565b81526020019081526020016000206040518060e0016040529081600082015481526020016001820160009054906101000a900473ffffffffffffffffffffffffffffffffffffffff1673ffffffffffffffffffffffffffffffffffffffff1673ffffffffffffffffffffffffffffffffffffffff168152602001600282018054610e9890611f90565b80601f0160208091040260200160405190810160405280929190818152602001828054610ec490611f90565b8015610f115780601f10610ee657610100808354040283529160200191610f11565b820191906000526020600020905b815481529060010190602001808311610ef457829003601f168201915b50505050508152602001600382018054610f2a90611f90565b80601f0160208091040260200160405190810160405280929190818152602001828054610f5690611f90565b8015610fa35780601f10610f7857610100808354040283529160200191610fa3565b820191906000526020600020905b815481529060010190602001808311610f8657829003601f168201915b5050505050815260200160048201548152602001600582015481526020016006820160009054906101000a900460ff161515151581525050828281518110610fee57610fed61263d565b5b60200260200101819052508080600101915050610df7565b5080955050505050505b92915050565b61101e61165d565b6003600083815260200190815260200160002060060160009054906101000a900460ff16611081576040517f08c379a0000000000000000000000000000000000000000000000000000000008152600401611078906126b8565b60405180910390fd5b600360008381526020019081526020016000206040518060e0016040529081600082015481526020016001820160009054906101000a900473ffffffffffffffffffffffffffffffffffffffff1673ffffffffffffffffffffffffffffffffffffffff1673ffffffffffffffffffffffffffffffffffffffff16815260200160028201805461110f90611f90565b80601f016020809104026020016040519081016040528092919081815260200182805461113b90611f90565b80156111885780601f1061115d57610100808354040283529160200191611188565b820191906000526020600020905b81548152906001019060200180831161116b57829003601f168201915b505050505081526020016003820180546111a190611f90565b80601f01602080910402602001604051908101604052809291908181526020018280546111cd90611f90565b801561121a5780601f106111ef5761010080835404028352916020019161121a565b820191906000526020600020905b8154815290600101906020018083116111fd57829003601f168201915b5050505050815260200160048201548152602001600582015481526020016006820160009054906101000a900460ff1615151515815250509050919050565b60066020528060005260406000206000915090505481565b6004602052816000526040600020818154811061128d57600080fd5b90600052602060002001600091509150505481565b6003600082815260200190815260200160002060060160009054906101000a900460ff16611305576040517f08c379a00000000000000000000000000000000000000000000000000000000081526004016112fc906126b8565b60405180910390fd5b6005600082815260200190815260200160002060003373ffffffffffffffffffffffffffffffffffffffff1673ffffffffffffffffffffffffffffffffffffffff16815260200190815260200160002060009054906101000a900460ff16156113a3576040517f08c379a000000000000000000000000000000000000000000000000000000000815260040161139a90612724565b60405180910390fd5b3373ffffffffffffffffffffffffffffffffffffffff166003600083815260200190815260200160002060010160009054906101000a900473ffffffffffffffffffffffffffffffffffffffff1673ffffffffffffffffffffffffffffffffffffffff1603611447576040517f08c379a000000000000000000000000000000000000000000000000000000000815260040161143e90612790565b60405180910390fd5b60016005600083815260200190815260200160002060003373ffffffffffffffffffffffffffffffffffffffff1673ffffffffffffffffffffffffffffffffffffffff16815260200190815260200160002060006101000a81548160ff0219169083151502179055506003600082815260200190815260200160002060050160008154809291906114d7906121ec565b919050555060008054906101000a900473ffffffffffffffffffffffffffffffffffffffff1673ffffffffffffffffffffffffffffffffffffffff1663290ab9ab6003600084815260200190815260200160002060010160009054906101000a900473ffffffffffffffffffffffffffffffffffffffff1660026040518363ffffffff1660e01b815260040161156e929190612837565b600060405180830381600087803b15801561158857600080fd5b505af1925050508015611599575060015b503373ffffffffffffffffffffffffffffffffffffffff16817fdfb8e3561bacb6caea7f0960d425956921b9147a631b6e857325c39911ee7e3b60036000858152602001908152602001600020600501546040516115f79190611760565b60405180910390a350565b600160009054906101000a900473ffffffffffffffffffffffffffffffffffffffff1681565b60025481565b60056020528160005260406000206020528060005260406000206000915091509054906101000a900460ff1681565b6040518060e0016040528060008152602001600073ffffffffffffffffffffffffffffffffffffffff168152602001606081526020016060815260200160008152602001600081526020016000151581525090565b600080fd5b600080fd5b600073ffffffffffffffffffffffffffffffffffffffff82169050919050565b60006116e7826116bc565b9050919050565b6116f7816116dc565b811461170257600080fd5b50565b600081359050611714816116ee565b92915050565b6000602082840312156117305761172f6116b2565b5b600061173e84828501611705565b91505092915050565b6000819050919050565b61175a81611747565b82525050565b60006020820190506117756000830184611751565b92915050565b61178481611747565b811461178f57600080fd5b50565b6000813590506117a18161177b565b92915050565b6000602082840312156117bd576117bc6116b2565b5b60006117cb84828501611792565b91505092915050565b6117dd816116dc565b82525050565b600081519050919050565b600082825260208201905092915050565b60005b8381101561181d578082015181840152602081019050611802565b60008484015250505050565b6000601f19601f8301169050919050565b6000611845826117e3565b61184f81856117ee565b935061185f8185602086016117ff565b61186881611829565b840191505092915050565b60008115159050919050565b61188881611873565b82525050565b600060e0820190506118a3600083018a611751565b6118b060208301896117d4565b81810360408301526118c2818861183a565b905081810360608301526118d6818761183a565b90506118e56080830186611751565b6118f260a0830185611751565b6118ff60c083018461187f565b98975050505050505050565b600081519050919050565b600082825260208201905092915050565b6000819050602082019050919050565b61194081611747565b82525050565b60006119528383611937565b60208301905092915050565b6000602082019050919050565b60006119768261190b565b6119808185611916565b935061198b83611927565b8060005b838110156119bc5781516119a38882611946565b97506119ae8361195e565b92505060018101905061198f565b5085935050505092915050565b600060208201905081810360008301526119e3818461196b565b905092915050565b6000819050919050565b6000611a10611a0b611a06846116bc565b6119eb565b6116bc565b9050919050565b6000611a22826119f5565b9050919050565b6000611a3482611a17565b9050919050565b611a4481611a29565b82525050565b6000602082019050611a5f6000830184611a3b565b92915050565b600080fd5b600080fd5b600080fd5b60008083601f840112611a8a57611a89611a65565b5b8235905067ffffffffffffffff811115611aa757611aa6611a6a565b5b602083019150836001820283011115611ac357611ac2611a6f565b5b9250929050565b60008060008060408587031215611ae457611ae36116b2565b5b600085013567ffffffffffffffff811115611b0257611b016116b7565b5b611b0e87828801611a74565b9450945050602085013567ffffffffffffffff811115611b3157611b306116b7565b5b611b3d87828801611a74565b925092505092959194509250565b60008060408385031215611b6257611b616116b2565b5b6000611b7085828601611792565b9250506020611b8185828601611792565b9150509250929050565b600081519050919050565b600082825260208201905092915050565b6000819050602082019050919050565b611bc0816116dc565b82525050565b600082825260208201905092915050565b6000611be2826117e3565b611bec8185611bc6565b9350611bfc8185602086016117ff565b611c0581611829565b840191505092915050565b611c1981611873565b82525050565b600060e083016000830151611c376000860182611937565b506020830151611c4a6020860182611bb7565b5060408301518482036040860152611c628282611bd7565b91505060608301518482036060860152611c7c8282611bd7565b9150506080830151611c916080860182611937565b5060a0830151611ca460a0860182611937565b5060c0830151611cb760c0860182611c10565b508091505092915050565b6000611cce8383611c1f565b905092915050565b6000602082019050919050565b6000611cee82611b8b565b611cf88185611b96565b935083602082028501611d0a85611ba7565b8060005b85811015611d465784840389528151611d278582611cc2565b9450611d3283611cd6565b925060208a01995050600181019050611d0e565b50829750879550505050505092915050565b60006020820190508181036000830152611d728184611ce3565b905092915050565b600060e083016000830151611d926000860182611937565b506020830151611da56020860182611bb7565b5060408301518482036040860152611dbd8282611bd7565b91505060608301518482036060860152611dd78282611bd7565b9150506080830151611dec6080860182611937565b5060a0830151611dff60a0860182611937565b5060c0830151611e1260c0860182611c10565b508091505092915050565b60006020820190508181036000830152611e378184611d7a565b905092915050565b60008060408385031215611e5657611e556116b2565b5b6000611e6485828601611705565b9250506020611e7585828601611792565b9150509250929050565b6000602082019050611e9460008301846117d4565b92915050565b60008060408385031215611eb157611eb06116b2565b5b6000611ebf85828601611792565b9250506020611ed085828601611705565b9150509250929050565b6000602082019050611eef600083018461187f565b92915050565b7f4e6f74206f776e65720000000000000000000000000000000000000000000000600082015250565b6000611f2b6009836117ee565b9150611f3682611ef5565b602082019050919050565b60006020820190508181036000830152611f5a81611f1e565b9050919050565b7f4e487b7100000000000000000000000000000000000000000000000000000000600052602260045260246000fd5b60006002820490506001821680611fa857607f821691505b602082108103611fbb57611fba611f61565b5b50919050565b7f4172776561766520494420726571756972656400000000000000000000000000600082015250565b6000611ff76013836117ee565b915061200282611fc1565b602082019050919050565b6000602082019050818103600083015261202681611fea565b9050919050565b600081905092915050565b82818337600083830152505050565b6000612053838561202d565b9350612060838584612038565b82840190509392505050565b6000612079828486612047565b91508190509392505050565b7f496e76616c696420636f6e74656e742074797065000000000000000000000000600082015250565b60006120bb6014836117ee565b91506120c682612085565b602082019050919050565b600060208201905081810360008301526120ea816120ae565b9050919050565b7f4e487b7100000000000000000000000000000000000000000000000000000000600052601260045260246000fd5b7f4e487b7100000000000000000000000000000000000000000000000000000000600052601160045260246000fd5b600061215a82611747565b915061216583611747565b925082612175576121746120f1565b5b828204905092915050565b7f4461696c7920706f7374206c696d697420726561636865640000000000000000600082015250565b60006121b66018836117ee565b91506121c182612180565b602082019050919050565b600060208201905081810360008301526121e5816121a9565b9050919050565b60006121f782611747565b91507fffffffffffffffffffffffffffffffffffffffffffffffffffffffffffffffff820361222957612228612120565b5b600182019050919050565b7f4e487b7100000000000000000000000000000000000000000000000000000000600052604160045260246000fd5b60008190508160005260206000209050919050565b60006020601f8301049050919050565b600082821b905092915050565b6000600883026122c57fffffffffffffffffffffffffffffffffffffffffffffffffffffffffffffffff82612288565b6122cf8683612288565b95508019841693508086168417925050509392505050565b60006123026122fd6122f884611747565b6119eb565b611747565b9050919050565b6000819050919050565b61231c836122e7565b61233061232882612309565b848454612295565b825550505050565b600090565b612345612338565b612350818484612313565b505050565b5b818110156123745761236960008261233d565b600181019050612356565b5050565b601f8211156123b95761238a81612263565b61239384612278565b810160208510156123a2578190505b6123b66123ae85612278565b830182612355565b50505b505050565b600082821c905092915050565b60006123dc600019846008026123be565b1980831691505092915050565b60006123f583836123cb565b9150826002028217905092915050565b61240e826117e3565b67ffffffffffffffff81111561242757612426612234565b5b6124318254611f90565b61243c828285612378565b600060209050601f83116001811461246f576000841561245d578287015190505b61246785826123e9565b8655506124cf565b601f19841661247d86612263565b60005b828110156124a557848901518255600182019150602085019450602081019050612480565b868310156124c257848901516124be601f8916826123cb565b8355505b6001600288020188555050505b505050505050565b7f706f73745f637265617465640000000000000000000000000000000000000000600082015250565b600061250d600c836117ee565b9150612518826124d7565b602082019050919050565b600060608201905061253860008301856117d4565b6125456020830184611751565b818103604083015261255681612500565b90509392505050565b600061256b83856117ee565b9350612578838584612038565b61258183611829565b840190509392505050565b600060608201905081810360008301526125a781878961255f565b905081810360208301526125bc81858761255f565b90506125cb6040830184611751565b9695505050505050565b60006125e082611747565b91506125eb83611747565b925082820390508181111561260357612602612120565b5b92915050565b600061261482611747565b915061261f83611747565b925082820190508082111561263757612636612120565b5b92915050565b7f4e487b7100000000000000000000000000000000000000000000000000000000600052603260045260246000fd5b7f506f7374206e6f7420666f756e64000000000000000000000000000000000000600082015250565b60006126a2600e836117ee565b91506126ad8261266c565b602082019050919050565b600060208201905081810360008301526126d181612695565b9050919050565b7f416c7265616479206c696b656400000000000000000000000000000000000000600082015250565b600061270e600d836117ee565b9150612719826126d8565b602082019050919050565b6000602082019050818103600083015261273d81612701565b9050919050565b7f43616e6e6f74206c696b65206f776e20706f7374000000000000000000000000600082015250565b600061277a6014836117ee565b915061278582612744565b602082019050919050565b600060208201905081810360008301526127a98161276d565b9050919050565b6000819050919050565b60006127d56127d06127cb846127b0565b6119eb565b611747565b9050919050565b6127e5816127ba565b82525050565b7f706f73745f6c696b656400000000000000000000000000000000000000000000600082015250565b6000612821600a836117ee565b915061282c826127eb565b602082019050919050565b600060608201905061284c60008301856117d4565b61285960208301846127dc565b818103604083015261286a81612814565b9050939250505056fea264697066735822122072839f0d5436d73fbb3fd441b0b284006417e1b205df9a9fe52e0fa6c9eb240264736f6c63430008180033",
  "linkReferences": {},
  "deployedLinkReferences": {}
}