{
  "_format": "hh-sol-artifact-1",
  "contractName": "VaultRegistry",
  "sourceName": "contracts/VaultRegistry.sol",
  "abi": [
    {
      "anonymous": false,
      "inputs": [
        {
          "indexed": true,
          "internalType": "uint256",
          "name": "fileId",
          "type": "uint256"
        },
        {
          "indexed": true,
          "internalType": "address",
          "name": "owner",
          "type": "address"
        }
      ],
      "name": "FileDeleted",
      "type": "event"
    },
    {
      "anonymous": false,
      "inputs": [
        {
          "indexed": true,
          "internalType": "uint256",
          "name": "fileId",
          "type": "uint256"
        },
        {
          "indexed": true,
          "internalType": "address",
          "name": "owner",
          "type": "address"
        },
        {
          "indexed": false,
          "internalType": "string",
          "name": "fileName",
          "type": "string"
        },
        {
          "indexed": false,
          "internalType": "uint256",
          "name": "timestamp",
          "type": "uint256"
        }
      ],
      "name": "FileStored",
      "type": "event"
    },
    {
      "inputs": [
        {
          "internalType": "uint256",
          "name": "fileId",
          "type": "uint256"
        }
      ],
      "name": "deleteFile",
      "outputs": [],
      "stateMutability": "nonpayable",
      "type": "function"
    },
    {
      "inputs": [
        {
          "internalType": "uint256",
          "name": "fileId",
          "type": "uint256"
        }
      ],
      "name": "getFile",
      "outputs": [
        {
          "components": [
            {
              "internalType": "uint256",
              "name": "id",
              "type": "uint256"
            },
            {
              "internalType": "address",
              "name": "owner",
              "type": "address"
            },
            {
              "internalType": "string",
              "name": "encryptedArweaveId",
              "type": "string"
            },
            {
              "internalType": "string",
              "name": "fileName",
              "type": "string"
            },
            {
              "internalType": "string",
              "name": "fileType",
              "type": "string"
            },
            {
              "internalType": "string",
              "name": "litConditionsHash",
              "type": "string"
            },
            {
              "internalType": "uint256",
              "name": "storedAt",
              "type": "uint256"
            },
            {
              "internalType": "bool",
              "name": "exists",
              "type": "bool"
            },
            {
              "internalType": "bool",
              "name": "isDeleted",
              "type": "bool"
            }
          ],
          "internalType": "struct VaultRegistry.VaultFile",
          "name": "",
          "type": "tuple"
        }
      ],
      "stateMutability": "view",
      "type": "function"
    },
    {
      "inputs": [],
      "name": "getMyFileCount",
      "outputs": [
        {
          "internalType": "uint256",
          "name": "",
          "type": "uint256"
        }
      ],
      "stateMutability": "view",
      "type": "function"
    },
    {
      "inputs": [],
      "name": "getMyFiles",
      "outputs": [
        {
          "components": [
            {
              "internalType": "uint256",
              "name": "id",
              "type": "uint256"
            },
            {
              "internalType": "address",
              "name": "owner",
              "type": "address"
            },
            {
              "internalType": "string",
              "name": "encryptedArweaveId",
              "type": "string"
            },
            {
              "internalType": "string",
              "name": "fileName",
              "type": "string"
            },
            {
              "internalType": "string",
              "name": "fileType",
              "type": "string"
            },
            {
              "internalType": "string",
              "name": "litConditionsHash",
              "type": "string"
            },
            {
              "internalType": "uint256",
              "name": "storedAt",
              "type": "uint256"
            },
            {
              "internalType": "bool",
              "name": "exists",
              "type": "bool"
            },
            {
              "internalType": "bool",
              "name": "isDeleted",
              "type": "bool"
            }
          ],
          "internalType": "struct VaultRegistry.VaultFile[]",
          "name": "",
          "type": "tuple[]"
        }
      ],
      "stateMutability": "view",
      "type": "function"
    },
    {
      "inputs": [
        {
          "internalType": "string",
          "name": "encryptedArweaveId",
          "type": "string"
        },
        {
          "internalType": "string",
          "name": "fileName",
          "type": "string"
        },
        {
          "internalType": "string",
          "name": "fileType",
          "type": "string"
        },
        {
          "internalType": "string",
          "name": "litConditionsHash",
          "type": "string"
        }
      ],
      "name": "storeFile",
      "outputs": [
        {
          "internalType": "uint256",
          "name": "",
          "type": "uint256"
        }
      ],
      "stateMutability": "nonpayable",
      "type": "function"
    },
    {
      "inputs": [],
      "name": "totalFiles",
      "outputs": [
        {
          "internalType": "uint256",
          "name": "",
          "type": "uint256"
        }
      ],
      "stateMutability": "view",
      "type": "function"
    }
  ],
  "bytecode": "0x608060405234801561001057600080fd5b50611c33806100206000396000f3fe608060405234801561001057600080fd5b50600436106100625760003560e01c80632bfda3131461006757806390a4b0df1461009757806392cf0557146100b5578063c5b42006146100d3578063c6d8efc1146100ef578063e8dc408e1461010d575b600080fd5b610081600480360381019061007c91906110c1565b61013d565b60405161008e91906112c3565b60405180910390f35b61009f61055c565b6040516100ac9190611481565b60405180910390f35b6100bd610a67565b6040516100ca91906114b2565b60405180910390f35b6100ed60048036038101906100e891906110c1565b610a6d565b005b6100f7610beb565b60405161010491906114b2565b60405180910390f35b61012760048036038101906101229190611532565b610c35565b60405161013491906114b2565b60405180910390f35b61014561101b565b816001600082815260200190815260200160002060070160009054906101000a900460ff166101a9576040517f08c379a00000000000000000000000000000000000000000000000000000000081526004016101a090611678565b60405180910390fd5b3373ffffffffffffffffffffffffffffffffffffffff166001600083815260200190815260200160002060010160009054906101000a900473ffffffffffffffffffffffffffffffffffffffff1673ffffffffffffffffffffffffffffffffffffffff161461024d576040517f08c379a0000000000000000000000000000000000000000000000000000000008152600401610244906116e4565b60405180910390fd5b6001600084815260200190815260200160002060405180610120016040529081600082015481526020016001820160009054906101000a900473ffffffffffffffffffffffffffffffffffffffff1673ffffffffffffffffffffffffffffffffffffffff1673ffffffffffffffffffffffffffffffffffffffff1681526020016002820180546102dc90611733565b80601f016020809104026020016040519081016040528092919081815260200182805461030890611733565b80156103555780601f1061032a57610100808354040283529160200191610355565b820191906000526020600020905b81548152906001019060200180831161033857829003601f168201915b5050505050815260200160038201805461036e90611733565b80601f016020809104026020016040519081016040528092919081815260200182805461039a90611733565b80156103e75780601f106103bc576101008083540402835291602001916103e7565b820191906000526020600020905b8154815290600101906020018083116103ca57829003601f168201915b5050505050815260200160048201805461040090611733565b80601f016020809104026020016040519081016040528092919081815260200182805461042c90611733565b80156104795780601f1061044e57610100808354040283529160200191610479565b820191906000526020600020905b81548152906001019060200180831161045c57829003601f168201915b5050505050815260200160058201805461049290611733565b80601f01602080910402602001604051908101604052809291908181526020018280546104be90611733565b801561050b5780601f106104e05761010080835404028352916020019161050b565b820191906000526020600020905b8154815290600101906020018083116104ee57829003601f168201915b50505050508152602001600682015481526020016007820160009054906101000a900460ff161515151581526020016007820160019054906101000a900460ff161515151581525050915050919050565b60606000600260003373ffffffffffffffffffffffffffffffffffffffff1673ffffffffffffffffffffffffffffffffffffffff1681526020019081526020016000208054806020026020016040519081016040528092919081815260200182805480156105e957602002820191906000526020600020905b8154815260200190600101908083116105d5575b505050505090506000805b825181101561065b576001600084838151811061061457610613611764565b5b6020026020010151815260200190815260200160002060070160019054906101000a900460ff1661064e57818061064a906117c2565b9250505b80806001019150506105f4565b5060008167ffffffffffffffff8111156106785761067761180a565b5b6040519080825280602002602001820160405280156106b157816020015b61069e61101b565b8152602001906001900390816106965790505b5090506000805b8451811015610a5c57600160008683815181106106d8576106d7611764565b5b6020026020010151815260200190815260200160002060070160019054906101000a900460ff16610a4f576001600086838151811061071a57610719611764565b5b6020026020010151815260200190815260200160002060405180610120016040529081600082015481526020016001820160009054906101000a900473ffffffffffffffffffffffffffffffffffffffff1673ffffffffffffffffffffffffffffffffffffffff1673ffffffffffffffffffffffffffffffffffffffff1681526020016002820180546107ac90611733565b80601f01602080910402602001604051908101604052809291908181526020018280546107d890611733565b80156108255780601f106107fa57610100808354040283529160200191610825565b820191906000526020600020905b81548152906001019060200180831161080857829003601f168201915b5050505050815260200160038201805461083e90611733565b80601f016020809104026020016040519081016040528092919081815260200182805461086a90611733565b80156108b75780601f1061088c576101008083540402835291602001916108b7565b820191906000526020600020905b81548152906001019060200180831161089a57829003601f168201915b505050505081526020016004820180546108d090611733565b80601f01602080910402602001604051908101604052809291908181526020018280546108fc90611733565b80156109495780601f1061091e57610100808354040283529160200191610949565b820191906000526020600020905b81548152906001019060200180831161092c57829003601f168201915b5050505050815260200160058201805461096290611733565b80601f016020809104026020016040519081016040528092919081815260200182805461098e90611733565b80156109db5780601f106109b0576101008083540402835291602001916109db565b820191906000526020600020905b8154815290600101906020018083116109be57829003601f168201915b50505050508152602001600682015481526020016007820160009054906101000a900460ff161515151581526020016007820160019054906101000a900460ff161515151581525050838380610a30906117c2565b945081518110610a4357610a42611764565b5b60200260200101819052505b80806001019150506106b8565b508194505050505090565b60005481565b806001600082815260200190815260200160002060070160009054906101000a900460ff16610ad1576040517f08c379a0000000000000000000000000000000000000000000000000000000008152600401610ac890611678565b60405180910390fd5b3373ffffffffffffffffffffffffffffffffffffffff166001600083815260200190815260200160002060010160009054906101000a900473ffffffffffffffffffffffffffffffffffffffff1673ffffffffffffffffffffffffffffffffffffffff1614610b75576040517f08c379a0000000000000000000000000000000000000000000000000000000008152600401610b6c906116e4565b60405180910390fd5b600180600084815260200190815260200160002060070160016101000a81548160ff0219169083151502179055503373ffffffffffffffffffffffffffffffffffffffff16827fcdcbb3a920cc4c36693c3d8447ebc2db96012535cb6f993f23160fa685288e1e60405160405180910390a35050565b6000600260003373ffffffffffffffffffffffffffffffffffffffff1673ffffffffffffffffffffffffffffffffffffffff16815260200190815260200160002080549050905090565b6000808989905011610c7c576040517f08c379a0000000000000000000000000000000000000000000000000000000008152600401610c7390611885565b60405180910390fd5b60008787905011610cc2576040517f08c379a0000000000000000000000000000000000000000000000000000000008152600401610cb9906118f1565b60405180910390fd5b6000806000815480929190610cd6906117c2565b9190505590506040518061012001604052808281526020013373ffffffffffffffffffffffffffffffffffffffff1681526020018b8b8080601f016020809104026020016040519081016040528093929190818152602001838380828437600081840152601f19601f82011690508083019250505050505050815260200189898080601f016020809104026020016040519081016040528093929190818152602001838380828437600081840152601f19601f82011690508083019250505050505050815260200187878080601f016020809104026020016040519081016040528093929190818152602001838380828437600081840152601f19601f82011690508083019250505050505050815260200185858080601f016020809104026020016040519081016040528093929190818152602001838380828437600081840152601f19601f82011690508083019250505050505050815260200142815260200160011515815260200160001515815250600160008381526020019081526020016000206000820151816000015560208201518160010160006101000a81548173ffffffffffffffffffffffffffffffffffffffff021916908373ffffffffffffffffffffffffffffffffffffffff1602179055506040820151816002019081610ec19190611abd565b506060820151816003019081610ed79190611abd565b506080820151816004019081610eed9190611abd565b5060a0820151816005019081610f039190611abd565b5060c0820151816006015560e08201518160070160006101000a81548160ff0219169083151502179055506101008201518160070160016101000a81548160ff021916908315150217905550905050600260003373ffffffffffffffffffffffffffffffffffffffff1673ffffffffffffffffffffffffffffffffffffffff1681526020019081526020016000208190806001815401808255809150506001900390600052602060002001600090919091909150553373ffffffffffffffffffffffffffffffffffffffff16817f9394bb113a2aae0d79c8c3d65d69839650a4662ec68b4c095d21c950686fbb7f8a8a4260405161100393929190611bcb565b60405180910390a38091505098975050505050505050565b60405180610120016040528060008152602001600073ffffffffffffffffffffffffffffffffffffffff16815260200160608152602001606081526020016060815260200160608152602001600081526020016000151581526020016000151581525090565b600080fd5b600080fd5b6000819050919050565b61109e8161108b565b81146110a957600080fd5b50565b6000813590506110bb81611095565b92915050565b6000602082840312156110d7576110d6611081565b5b60006110e5848285016110ac565b91505092915050565b6110f78161108b565b82525050565b600073ffffffffffffffffffffffffffffffffffffffff82169050919050565b6000611128826110fd565b9050919050565b6111388161111d565b82525050565b600081519050919050565b600082825260208201905092915050565b60005b8381101561117857808201518184015260208101905061115d565b60008484015250505050565b6000601f19601f8301169050919050565b60006111a08261113e565b6111aa8185611149565b93506111ba81856020860161115a565b6111c381611184565b840191505092915050565b60008115159050919050565b6111e3816111ce565b82525050565b60006101208301600083015161120260008601826110ee565b506020830151611215602086018261112f565b506040830151848203604086015261122d8282611195565b915050606083015184820360608601526112478282611195565b915050608083015184820360808601526112618282611195565b91505060a083015184820360a086015261127b8282611195565b91505060c083015161129060c08601826110ee565b5060e08301516112a360e08601826111da565b506101008301516112b86101008601826111da565b508091505092915050565b600060208201905081810360008301526112dd81846111e9565b905092915050565b600081519050919050565b600082825260208201905092915050565b6000819050602082019050919050565b60006101208301600083015161132a60008601826110ee565b50602083015161133d602086018261112f565b50604083015184820360408601526113558282611195565b9150506060830151848203606086015261136f8282611195565b915050608083015184820360808601526113898282611195565b91505060a083015184820360a08601526113a38282611195565b91505060c08301516113b860c08601826110ee565b5060e08301516113cb60e08601826111da565b506101008301516113e06101008601826111da565b508091505092915050565b60006113f78383611311565b905092915050565b6000602082019050919050565b6000611417826112e5565b61142181856112f0565b93508360208202850161143385611301565b8060005b8581101561146f578484038952815161145085826113eb565b945061145b836113ff565b925060208a01995050600181019050611437565b50829750879550505050505092915050565b6000602082019050818103600083015261149b818461140c565b905092915050565b6114ac8161108b565b82525050565b60006020820190506114c760008301846114a3565b92915050565b600080fd5b600080fd5b600080fd5b60008083601f8401126114f2576114f16114cd565b5b8235905067ffffffffffffffff81111561150f5761150e6114d2565b5b60208301915083600182028301111561152b5761152a6114d7565b5b9250929050565b6000806000806000806000806080898b03121561155257611551611081565b5b600089013567ffffffffffffffff8111156115705761156f611086565b5b61157c8b828c016114dc565b9850985050602089013567ffffffffffffffff81111561159f5761159e611086565b5b6115ab8b828c016114dc565b9650965050604089013567ffffffffffffffff8111156115ce576115cd611086565b5b6115da8b828c016114dc565b9450945050606089013567ffffffffffffffff8111156115fd576115fc611086565b5b6116098b828c016114dc565b92509250509295985092959890939650565b600082825260208201905092915050565b7f46696c65206e6f7420666f756e64000000000000000000000000000000000000600082015250565b6000611662600e8361161b565b915061166d8261162c565b602082019050919050565b6000602082019050818103600083015261169181611655565b9050919050565b7f4e6f742066696c65206f776e6572000000000000000000000000000000000000600082015250565b60006116ce600e8361161b565b91506116d982611698565b602082019050919050565b600060208201905081810360008301526116fd816116c1565b9050919050565b7f4e487b7100000000000000000000000000000000000000000000000000000000600052602260045260246000fd5b6000600282049050600182168061174b57607f821691505b60208210810361175e5761175d611704565b5b50919050565b7f4e487b7100000000000000000000000000000000000000000000000000000000600052603260045260246000fd5b7f4e487b7100000000000000000000000000000000000000000000000000000000600052601160045260246000fd5b60006117cd8261108b565b91507fffffffffffffffffffffffffffffffffffffffffffffffffffffffffffffffff82036117ff576117fe611793565b5b600182019050919050565b7f4e487b7100000000000000000000000000000000000000000000000000000000600052604160045260246000fd5b7f4172776561766520494420726571756972656400000000000000000000000000600082015250565b600061186f60138361161b565b915061187a82611839565b602082019050919050565b6000602082019050818103600083015261189e81611862565b9050919050565b7f46696c65206e616d652072657175697265640000000000000000000000000000600082015250565b60006118db60128361161b565b91506118e6826118a5565b602082019050919050565b6000602082019050818103600083015261190a816118ce565b9050919050565b60008190508160005260206000209050919050565b60006020601f8301049050919050565b600082821b905092915050565b6000600883026119737fffffffffffffffffffffffffffffffffffffffffffffffffffffffffffffffff82611936565b61197d8683611936565b95508019841693508086168417925050509392505050565b6000819050919050565b60006119ba6119b56119b08461108b565b611995565b61108b565b9050919050565b6000819050919050565b6119d48361199f565b6119e86119e0826119c1565b848454611943565b825550505050565b600090565b6119fd6119f0565b611a088184846119cb565b505050565b5b81811015611a2c57611a216000826119f5565b600181019050611a0e565b5050565b601f821115611a7157611a4281611911565b611a4b84611926565b81016020851015611a5a578190505b611a6e611a6685611926565b830182611a0d565b50505b505050565b600082821c905092915050565b6000611a9460001984600802611a76565b1980831691505092915050565b6000611aad8383611a83565b9150826002028217905092915050565b611ac68261113e565b67ffffffffffffffff811115611adf57611ade61180a565b5b611ae98254611733565b611af4828285611a30565b600060209050601f831160018114611b275760008415611b15578287015190505b611b1f8582611aa1565b865550611b87565b601f198416611b3586611911565b60005b82811015611b5d57848901518255600182019150602085019450602081019050611b38565b86831015611b7a5784890151611b76601f891682611a83565b8355505b6001600288020188555050505b505050505050565b82818337600083830152505050565b6000611baa838561161b565b9350611bb7838584611b8f565b611bc083611184565b840190509392505050565b60006040820190508181036000830152611be6818587611b9e565b9050611bf560208301846114a3565b94935050505056fea2646970667358221220747076e3342f60972c745a7eb6d90cd95c55eb09750051ca3e0cfe5863abaa4c64736f6c63430008180033",
  "linkReferences": {},
  "deployedLinkReferences": {}
}