{
  "_format": "hh-sol-artifact-1",
  "contractName": "UserRegistry",
  "sourceName": "contracts/UserRegistry.sol",
  "abi": [
    {
      "anonymous": false,
      "inputs": [
        {
          "indexed": true,
          "internalType": "address",
          "name": "wallet",
          "type": "address"
        },
        {
          "indexed": false,
          "internalType": "string",
          "name": "profileArweaveId",
          "type": "string"
        }
      ],
      "name": "ProfileUpdated",
      "type": "event"
    },
    {
      "anonymous": false,
      "inputs": [
        {
          "indexed": true,
          "internalType": "address",
          "name": "wallet",
          "type": "address"
        },
        {
          "indexed": false,
          "internalType": "string",
          "name": "username",
          "type": "string"
        },
        {
          "indexed": false,
          "internalType": "uint256",
          "name": "timestamp",
          "type": "uint256"
        }
      ],
      "name": "UserRegistered",
      "type": "event"
    },
    {
      "inputs": [
        {
          "internalType": "uint256",
          "name": "",
          "type": "uint256"
        }
      ],
      "name": "allUsers",
      "outputs": [
        {
          "internalType": "address",
          "name": "",
          "type": "address"
        }
      ],
      "stateMutability": "view",
      "type": "function"
    },
    {
      "inputs": [],
      "name": "getTotalUsers",
      "outputs": [
        {
          "internalType": "uint256",
          "name": "",
          "type": "uint256"
        }
      ],
      "stateMutability": "view",
      "type": "function"
    },
    {
      "inputs": [
        {
          "internalType": "address",
          "name": "wallet",
          "type": "address"
        }
      ],
      "name": "getUser",
      "outputs": [
        {
          "components": [
            {
              "internalType": "string",
              "name": "username",
              "type": "string"
            },
            {
              "internalType": "string",
              "name": "profileArweaveId",
              "type": "string"
            },
            {
              "internalType": "uint256",
              "name": "joinedAt",
              "type": "uint256"
            },
            {
              "internalType": "bool",
              "name": "exists",
              "type": "bool"
            }
          ],
          "internalType": "struct UserRegistry.User",
          "name": "",
          "type": "tuple"
        }
      ],
      "stateMutability": "view",
      "type": "function"
    },
    {
      "inputs": [
        {
          "internalType": "address",
          "name": "wallet",
          "type": "address"
        }
      ],
      "name": "isRegistered",
      "outputs": [
        {
          "internalType": "bool",
          "name": "",
          "type": "bool"
        }
      ],
      "stateMutability": "view",
      "type": "function"
    },
    {
      "inputs": [
        {
          "internalType": "string",
          "name": "username",
          "type": "string"
        }
      ],
      "name": "register",
      "outputs": [],
      "stateMutability": "nonpayable",
      "type": "function"
    },
    {
      "inputs": [
        {
          "internalType": "string",
          "name": "profileArweaveId",
          "type": "string"
        }
      ],
      "name": "updateProfile",
      "outputs": [],
      "stateMutability": "nonpayable",
      "type": "function"
    },
    {
      "inputs": [
        {
          "internalType": "string",
          "name": "",
          "type": "string"
        }
      ],
      "name": "usernameToAddress",
      "outputs": [
        {
          "internalType": "address",
          "name": "",
          "type": "address"
        }
      ],
      "stateMutability": "view",
      "type": "function"
    },
    {
      "inputs": [
        {
          "internalType": "address",
          "name": "",
          "type": "address"
        }
      ],
      "name": "users",
      "outputs": [
        {
          "internalType": "string",
          "name": "username",
          "type": "string"
        },
        {
          "internalType": "string",
          "name": "profileArweaveId",
          "type": "string"
        },
        {
          "internalType": "uint256",
          "name": "joinedAt",
          "type": "uint256"
        },
        {
          "internalType": "bool",
          "name": "exists",
          "type": "bool"
        }
      ],
      "stateMutability": "view",
      "type": "function"
    }
  ],
  "bytecode": "0x608060405234801561001057600080fd5b506116c1806100206000396000f3fe608060405234801561001057600080fd5b50600436106100875760003560e01c8063a87430ba1161005b578063a87430ba14610126578063c3c5a54714610159578063f2c298be14610189578063f825f143146101a557610087565b80629299e31461008c5780636f77926b146100a85780639be572f6146100d8578063a2bdedf4146100f6575b600080fd5b6100a660048036038101906100a19190610b41565b6101d5565b005b6100c260048036038101906100bd9190610bec565b610308565b6040516100cf9190610d47565b60405180910390f35b6100e06104a9565b6040516100ed9190610d78565b60405180910390f35b610110600480360381019061010b9190610dbf565b6104b6565b60405161011d9190610dfb565b60405180910390f35b610140600480360381019061013b9190610bec565b6104f5565b6040516101509493929190610e6f565b60405180910390f35b610173600480360381019061016e9190610bec565b610642565b6040516101809190610ec2565b60405180910390f35b6101a3600480360381019061019e9190610b41565b61069a565b005b6101bf60048036038101906101ba919061100d565b610a55565b6040516101cc9190610dfb565b60405180910390f35b6000803373ffffffffffffffffffffffffffffffffffffffff1673ffffffffffffffffffffffffffffffffffffffff16815260200190815260200160002060030160009054906101000a900460ff16610263576040517f08c379a000000000000000000000000000000000000000000000000000000000815260040161025a906110a2565b60405180910390fd5b81816000803373ffffffffffffffffffffffffffffffffffffffff1673ffffffffffffffffffffffffffffffffffffffff16815260200190815260200160002060010191826102b39291906112d9565b503373ffffffffffffffffffffffffffffffffffffffff167fdd635a4cd84864e37e4479dbfc2ec667acfa473c83c8422a8ac9d9d07599b01c83836040516102fc9291906113d6565b60405180910390a25050565b610310610a9e565b6000808373ffffffffffffffffffffffffffffffffffffffff1673ffffffffffffffffffffffffffffffffffffffff168152602001908152602001600020604051806080016040529081600082018054610369906110fc565b80601f0160208091040260200160405190810160405280929190818152602001828054610395906110fc565b80156103e25780601f106103b7576101008083540402835291602001916103e2565b820191906000526020600020905b8154815290600101906020018083116103c557829003601f168201915b505050505081526020016001820180546103fb906110fc565b80601f0160208091040260200160405190810160405280929190818152602001828054610427906110fc565b80156104745780601f1061044957610100808354040283529160200191610474565b820191906000526020600020905b81548152906001019060200180831161045757829003601f168201915b50505050508152602001600282015481526020016003820160009054906101000a900460ff1615151515815250509050919050565b6000600280549050905090565b600281815481106104c657600080fd5b906000526020600020016000915054906101000a900473ffffffffffffffffffffffffffffffffffffffff1681565b6000602052806000526040600020600091509050806000018054610518906110fc565b80601f0160208091040260200160405190810160405280929190818152602001828054610544906110fc565b80156105915780601f1061056657610100808354040283529160200191610591565b820191906000526020600020905b81548152906001019060200180831161057457829003601f168201915b5050505050908060010180546105a6906110fc565b80601f01602080910402602001604051908101604052809291908181526020018280546105d2906110fc565b801561061f5780601f106105f45761010080835404028352916020019161061f565b820191906000526020600020905b81548152906001019060200180831161060257829003601f168201915b5050505050908060020154908060030160009054906101000a900460ff16905084565b60008060008373ffffffffffffffffffffffffffffffffffffffff1673ffffffffffffffffffffffffffffffffffffffff16815260200190815260200160002060030160009054906101000a900460ff169050919050565b6000803373ffffffffffffffffffffffffffffffffffffffff1673ffffffffffffffffffffffffffffffffffffffff16815260200190815260200160002060030160009054906101000a900460ff1615610729576040517f08c379a000000000000000000000000000000000000000000000000000000000815260040161072090611446565b60405180910390fd5b60038282905010158015610741575060208282905011155b610780576040517f08c379a0000000000000000000000000000000000000000000000000000000008152600401610777906114b2565b60405180910390fd5b600073ffffffffffffffffffffffffffffffffffffffff16600183836040516107aa929190611502565b908152602001604051809103902060009054906101000a900473ffffffffffffffffffffffffffffffffffffffff1673ffffffffffffffffffffffffffffffffffffffff161461082f576040517f08c379a000000000000000000000000000000000000000000000000000000000815260040161082690611567565b60405180910390fd5b604051806080016040528083838080601f016020809104026020016040519081016040528093929190818152602001838380828437600081840152601f19601f820116905080830192505050505050508152602001604051806020016040528060008152508152602001428152602001600115158152506000803373ffffffffffffffffffffffffffffffffffffffff1673ffffffffffffffffffffffffffffffffffffffff16815260200190815260200160002060008201518160000190816108f99190611587565b50602082015181600101908161090f9190611587565b506040820151816002015560608201518160030160006101000a81548160ff0219169083151502179055509050503360018383604051610950929190611502565b908152602001604051809103902060006101000a81548173ffffffffffffffffffffffffffffffffffffffff021916908373ffffffffffffffffffffffffffffffffffffffff1602179055506002339080600181540180825580915050600190039060005260206000200160009091909190916101000a81548173ffffffffffffffffffffffffffffffffffffffff021916908373ffffffffffffffffffffffffffffffffffffffff1602179055503373ffffffffffffffffffffffffffffffffffffffff167f89105a1c6a3c2fbd471255c66a31ccab604af5697f67d7e2e9a0028c5e4dbd91838342604051610a4993929190611659565b60405180910390a25050565b6001818051602081018201805184825260208301602085012081835280955050505050506000915054906101000a900473ffffffffffffffffffffffffffffffffffffffff1681565b60405180608001604052806060815260200160608152602001600081526020016000151581525090565b6000604051905090565b600080fd5b600080fd5b600080fd5b600080fd5b600080fd5b60008083601f840112610b0157610b00610adc565b5b8235905067ffffffffffffffff811115610b1e57610b1d610ae1565b5b602083019150836001820283011115610b3a57610b39610ae6565b5b9250929050565b60008060208385031215610b5857610b57610ad2565b5b600083013567ffffffffffffffff811115610b7657610b75610ad7565b5b610b8285828601610aeb565b92509250509250929050565b600073ffffffffffffffffffffffffffffffffffffffff82169050919050565b6000610bb982610b8e565b9050919050565b610bc981610bae565b8114610bd457600080fd5b50565b600081359050610be681610bc0565b92915050565b600060208284031215610c0257610c01610ad2565b5b6000610c1084828501610bd7565b91505092915050565b600081519050919050565b600082825260208201905092915050565b60005b83811015610c53578082015181840152602081019050610c38565b60008484015250505050565b6000601f19601f8301169050919050565b6000610c7b82610c19565b610c858185610c24565b9350610c95818560208601610c35565b610c9e81610c5f565b840191505092915050565b6000819050919050565b610cbc81610ca9565b82525050565b60008115159050919050565b610cd781610cc2565b82525050565b60006080830160008301518482036000860152610cfa8282610c70565b91505060208301518482036020860152610d148282610c70565b9150506040830151610d296040860182610cb3565b506060830151610d3c6060860182610cce565b508091505092915050565b60006020820190508181036000830152610d618184610cdd565b905092915050565b610d7281610ca9565b82525050565b6000602082019050610d8d6000830184610d69565b92915050565b610d9c81610ca9565b8114610da757600080fd5b50565b600081359050610db981610d93565b92915050565b600060208284031215610dd557610dd4610ad2565b5b6000610de384828501610daa565b91505092915050565b610df581610bae565b82525050565b6000602082019050610e106000830184610dec565b92915050565b600082825260208201905092915050565b6000610e3282610c19565b610e3c8185610e16565b9350610e4c818560208601610c35565b610e5581610c5f565b840191505092915050565b610e6981610cc2565b82525050565b60006080820190508181036000830152610e898187610e27565b90508181036020830152610e9d8186610e27565b9050610eac6040830185610d69565b610eb96060830184610e60565b95945050505050565b6000602082019050610ed76000830184610e60565b92915050565b600080fd5b7f4e487b7100000000000000000000000000000000000000000000000000000000600052604160045260246000fd5b610f1a82610c5f565b810181811067ffffffffffffffff82111715610f3957610f38610ee2565b5b80604052505050565b6000610f4c610ac8565b9050610f588282610f11565b919050565b600067ffffffffffffffff821115610f7857610f77610ee2565b5b610f8182610c5f565b9050602081019050919050565b82818337600083830152505050565b6000610fb0610fab84610f5d565b610f42565b905082815260208101848484011115610fcc57610fcb610edd565b5b610fd7848285610f8e565b509392505050565b600082601f830112610ff457610ff3610adc565b5b8135611004848260208601610f9d565b91505092915050565b60006020828403121561102357611022610ad2565b5b600082013567ffffffffffffffff81111561104157611040610ad7565b5b61104d84828501610fdf565b91505092915050565b7f4e6f742072656769737465726564000000000000000000000000000000000000600082015250565b600061108c600e83610e16565b915061109782611056565b602082019050919050565b600060208201905081810360008301526110bb8161107f565b9050919050565b600082905092915050565b7f4e487b7100000000000000000000000000000000000000000000000000000000600052602260045260246000fd5b6000600282049050600182168061111457607f821691505b602082108103611127576111266110cd565b5b50919050565b60008190508160005260206000209050919050565b60006020601f8301049050919050565b600082821b905092915050565b60006008830261118f7fffffffffffffffffffffffffffffffffffffffffffffffffffffffffffffffff82611152565b6111998683611152565b95508019841693508086168417925050509392505050565b6000819050919050565b60006111d66111d16111cc84610ca9565b6111b1565b610ca9565b9050919050565b6000819050919050565b6111f0836111bb565b6112046111fc826111dd565b84845461115f565b825550505050565b600090565b61121961120c565b6112248184846111e7565b505050565b5b818110156112485761123d600082611211565b60018101905061122a565b5050565b601f82111561128d5761125e8161112d565b61126784611142565b81016020851015611276578190505b61128a61128285611142565b830182611229565b50505b505050565b600082821c905092915050565b60006112b060001984600802611292565b1980831691505092915050565b60006112c9838361129f565b9150826002028217905092915050565b6112e383836110c2565b67ffffffffffffffff8111156112fc576112fb610ee2565b5b61130682546110fc565b61131182828561124c565b6000601f831160018114611340576000841561132e578287013590505b61133885826112bd565b8655506113a0565b601f19841661134e8661112d565b60005b8281101561137657848901358255600182019150602085019450602081019050611351565b86831015611393578489013561138f601f89168261129f565b8355505b6001600288020188555050505b50505050505050565b60006113b58385610e16565b93506113c2838584610f8e565b6113cb83610c5f565b840190509392505050565b600060208201905081810360008301526113f18184866113a9565b90509392505050565b7f416c726561647920726567697374657265640000000000000000000000000000600082015250565b6000611430601283610e16565b915061143b826113fa565b602082019050919050565b6000602082019050818103600083015261145f81611423565b9050919050565b7f557365726e616d6520332d333220636861727300000000000000000000000000600082015250565b600061149c601383610e16565b91506114a782611466565b602082019050919050565b600060208201905081810360008301526114cb8161148f565b9050919050565b600081905092915050565b60006114e983856114d2565b93506114f6838584610f8e565b82840190509392505050565b600061150f8284866114dd565b91508190509392505050565b7f557365726e616d652074616b656e000000000000000000000000000000000000600082015250565b6000611551600e83610e16565b915061155c8261151b565b602082019050919050565b6000602082019050818103600083015261158081611544565b9050919050565b61159082610c19565b67ffffffffffffffff8111156115a9576115a8610ee2565b5b6115b382546110fc565b6115be82828561124c565b600060209050601f8311600181146115f157600084156115df578287015190505b6115e985826112bd565b865550611651565b601f1984166115ff8661112d565b60005b8281101561162757848901518255600182019150602085019450602081019050611602565b868310156116445784890151611640601f89168261129f565b8355505b6001600288020188555050505b505050505050565b600060408201905081810360008301526116748185876113a9565b90506116836020830184610d69565b94935050505056fea264697066735822122081f776d3715c2b197fe644fa3ebf900035797c1494844ae7f34dc3cf64abd3f164736f6c63430008180033",
  "linkReferences": {},
  "deployedLinkReferences": {}
}