{
  "_format": "hh-sol-artifact-1",
  "contractName": "PointsSystem",
  "sourceName": "contracts/PointsSystem.sol",
  "abi": [
    {
      "inputs": [],
      "stateMutability": "nonpayable",
      "type": "constructor"
    },
    {
      "anonymous": false,
      "inputs": [
        {
          "indexed": true,
          "internalType": "address",
          "name": "user",
          "type": "address"
        },
        {
          "indexed": false,
          "internalType": "uint256",
          "name": "amount",
          "type": "uint256"
        },
        {
          "indexed": false,
          "internalType": "string",
          "name": "reason",
          "type": "string"
        },
        {
          "indexed": false,
          "internalType": "uint256",
          "name": "newBalance",
          "type": "uint256"
        }
      ],
      "name": "PointsAwarded",
      "type": "event"
    },
    {
      "anonymous": false,
      "inputs": [
        {
          "indexed": true,
          "internalType": "address",
          "name": "user",
          "type": "address"
        },
        {
          "indexed": false,
          "internalType": "uint256",
          "name": "amount",
          "type": "uint256"
        },
        {
          "indexed": false,
          "internalType": "string",
          "name": "reason",
          "type": "string"
        },
        {
          "indexed": false,
          "internalType": "uint256",
          "name": "newBalance",
          "type": "uint256"
        }
      ],
      "name": "PointsSpent",
      "type": "event"
    },
    {
      "inputs": [],
      "name": "MAX_DAILY_EARN",
      "outputs": [
        {
          "internalType": "uint256",
          "name": "",
          "type": "uint256"
        }
      ],
      "stateMutability": "view",
      "type": "function"
    },
    {
      "inputs": [
        {
          "internalType": "address",
          "name": "caller",
          "type": "address"
        }
      ],
      "name": "authoriseCaller",
      "outputs": [],
      "stateMutability": "nonpayable",
      "type": "function"
    },
    {
      "inputs": [
        {
          "internalType": "address",
          "name": "",
          "type": "address"
        }
      ],
      "name": "authorisedCallers",
      "outputs": [
        {
          "internalType": "bool",
          "name": "",
          "type": "bool"
        }
      ],
      "stateMutability": "view",
      "type": "function"
    },
    {
      "inputs": [
        {
          "internalType": "address",
          "name": "user",
          "type": "address"
        },
        {
          "internalType": "uint256",
          "name": "amount",
          "type": "uint256"
        },
        {
          "internalType": "string",
          "name": "reason",
          "type": "string"
        }
      ],
      "name": "awardPoints",
      "outputs": [],
      "stateMutability": "nonpayable",
      "type": "function"
    },
    {
      "inputs": [],
      "name": "claimWelcomeBonus",
      "outputs": [],
      "stateMutability": "nonpayable",
      "type": "function"
    },
    {
      "inputs": [
        {
          "internalType": "address",
          "name": "",
          "type": "address"
        }
      ],
      "name": "dailyEarned",
      "outputs": [
        {
          "internalType": "uint256",
          "name": "",
          "type": "uint256"
        }
      ],
      "stateMutability": "view",
      "type": "function"
    },
    {
      "inputs": [
        {
          "internalType": "address",
          "name": "user",
          "type": "address"
        }
      ],
      "name": "getDailyEarned",
      "outputs": [
        {
          "internalType": "uint256",
          "name": "",
          "type": "uint256"
        }
      ],
      "stateMutability": "view",
      "type": "function"
    },
    {
      "inputs": [
        {
          "internalType": "address",
          "name": "user",
          "type": "address"
        }
      ],
      "name": "getPoints",
      "outputs": [
        {
          "internalType": "uint256",
          "name": "",
          "type": "uint256"
        }
      ],
      "stateMutability": "view",
      "type": "function"
    },
    {
      "inputs": [
        {
          "internalType": "address",
          "name": "",
          "type": "address"
        }
      ],
      "name": "lastEarnDay",
      "outputs": [
        {
          "internalType": "uint256",
          "name": "",
          "type": "uint256"
        }
      ],
      "stateMutability": "view",
      "type": "function"
    },
    {
      "inputs": [],
      "name": "owner",
      "outputs": [
        {
          "internalType": "address",
          "name": "",
          "type": "address"
        }
      ],
      "stateMutability": "view",
      "type": "function"
    },
    {
      "inputs": [
        {
          "internalType": "address",
          "name": "",
          "type": "address"
        }
      ],
      "name": "points",
      "outputs": [
        {
          "internalType": "uint256",
          "name": "",
          "type": "uint256"
        }
      ],
      "stateMutability": "view",
      "type": "function"
    },
    {
      "inputs": [
        {
          "internalType": "address",
          "name": "user",
          "type": "address"
        },
        {
          "internalType": "uint256",
          "name": "amount",
          "type": "uint256"
        },
        {
          "internalType": "string",
          "name": "reason",
          "type": "string"
        }
      ],
      "name": "spendPoints",
      "outputs": [],
      "stateMutability": "nonpayable",
      "type": "function"
    },
    {
      "inputs": [
        {
          "internalType": "address",
          "name": "",
          "type": "address"
        }
      ],
      "name": "totalEarned",
      "outputs": [
        {
          "internalType": "uint256",
          "name": "",
          "type": "uint256"
        }
      ],
      "stateMutability": "view",
      "type": "function"
    }
  ],
  "bytecode": "0x608060405234801561001057600080fd5b5033600460006101000a81548173ffffffffffffffffffffffffffffffffffffffff021916908373ffffffffffffffffffffffffffffffffffffffff1602179055506001600560003373ffffffffffffffffffffffffffffffffffffffff1673ffffffffffffffffffffffffffffffffffffffff16815260200190815260200160002060006101000a81548160ff0219169083151502179055506113f3806100b96000396000f3fe608060405234801561001057600080fd5b50600436106100cf5760003560e01c80638c2f21851161008c578063a186e58e11610066578063a186e58e14610238578063ae98389014610268578063e049d09b14610272578063ee204abb1461028e576100cf565b80638c2f2185146101ce5780638da5cb5b146101ea578063944fd18014610208576100cf565b80631fe0bc36146100d457806320f9119e14610104578063290ab9ab14610122578063358b81661461013e578063649aca4a1461016e57806383cd9e501461019e575b600080fd5b6100ee60048036038101906100e99190610de5565b6102be565b6040516100fb9190610e2b565b60405180910390f35b61010c6102d6565b6040516101199190610e2b565b60405180910390f35b61013c60048036038101906101379190610ed7565b6102dc565b005b61015860048036038101906101539190610de5565b6106fd565b6040516101659190610e2b565b60405180910390f35b61018860048036038101906101839190610de5565b610715565b6040516101959190610e2b565b60405180910390f35b6101b860048036038101906101b39190610de5565b61072d565b6040516101c59190610e2b565b60405180910390f35b6101e860048036038101906101e39190610de5565b6107da565b005b6101f26108c5565b6040516101ff9190610f5a565b60405180910390f35b610222600480360381019061021d9190610de5565b6108eb565b60405161022f9190610f90565b60405180910390f35b610252600480360381019061024d9190610de5565b61090b565b60405161025f9190610e2b565b60405180910390f35b610270610923565b005b61028c60048036038101906102879190610ed7565b610ae3565b005b6102a860048036038101906102a39190610de5565b610d35565b6040516102b59190610e2b565b60405180910390f35b60036020528060005260406000206000915090505481565b6101f481565b600560003373ffffffffffffffffffffffffffffffffffffffff1673ffffffffffffffffffffffffffffffffffffffff16815260200190815260200160002060009054906101000a900460ff16806103815750600460009054906101000a900473ffffffffffffffffffffffffffffffffffffffff1673ffffffffffffffffffffffffffffffffffffffff163373ffffffffffffffffffffffffffffffffffffffff16145b6103c0576040517f08c379a00000000000000000000000000000000000000000000000000000000081526004016103b790611008565b60405180910390fd5b600062015180426103d19190611086565b905080600260008773ffffffffffffffffffffffffffffffffffffffff1673ffffffffffffffffffffffffffffffffffffffff16815260200190815260200160002054146104a35780600260008773ffffffffffffffffffffffffffffffffffffffff1673ffffffffffffffffffffffffffffffffffffffff168152602001908152602001600020819055506000600360008773ffffffffffffffffffffffffffffffffffffffff1673ffffffffffffffffffffffffffffffffffffffff168152602001908152602001600020819055505b6000600360008773ffffffffffffffffffffffffffffffffffffffff1673ffffffffffffffffffffffffffffffffffffffff168152602001908152602001600020546101f4116104f4576000610542565b600360008773ffffffffffffffffffffffffffffffffffffffff1673ffffffffffffffffffffffffffffffffffffffff168152602001908152602001600020546101f461054191906110b7565b5b905060008186116105535785610555565b815b905060008111156106f457806000808973ffffffffffffffffffffffffffffffffffffffff1673ffffffffffffffffffffffffffffffffffffffff16815260200190815260200160002060008282546105ae91906110eb565b9250508190555080600160008973ffffffffffffffffffffffffffffffffffffffff1673ffffffffffffffffffffffffffffffffffffffff168152602001908152602001600020600082825461060491906110eb565b9250508190555080600360008973ffffffffffffffffffffffffffffffffffffffff1673ffffffffffffffffffffffffffffffffffffffff168152602001908152602001600020600082825461065a91906110eb565b925050819055508673ffffffffffffffffffffffffffffffffffffffff167fcf0375f0196cb6bd6a740094742ce3ed8af508f979c9e85fd4578e0f7823515a8287876000808d73ffffffffffffffffffffffffffffffffffffffff1673ffffffffffffffffffffffffffffffffffffffff168152602001908152602001600020546040516106eb949392919061116c565b60405180910390a25b50505050505050565b60006020528060005260406000206000915090505481565b60016020528060005260406000206000915090505481565b600080620151804261073f9190611086565b905080600260008573ffffffffffffffffffffffffffffffffffffffff1673ffffffffffffffffffffffffffffffffffffffff16815260200190815260200160002054146107915760009150506107d5565b600360008473ffffffffffffffffffffffffffffffffffffffff1673ffffffffffffffffffffffffffffffffffffffff168152602001908152602001600020549150505b919050565b600460009054906101000a900473ffffffffffffffffffffffffffffffffffffffff1673ffffffffffffffffffffffffffffffffffffffff163373ffffffffffffffffffffffffffffffffffffffff161461086a576040517f08c379a0000000000000000000000000000000000000000000000000000000008152600401610861906111f8565b60405180910390fd5b6001600560008373ffffffffffffffffffffffffffffffffffffffff1673ffffffffffffffffffffffffffffffffffffffff16815260200190815260200160002060006101000a81548160ff02191690831515021790555050565b600460009054906101000a900473ffffffffffffffffffffffffffffffffffffffff1681565b60056020528060005260406000206000915054906101000a900460ff1681565b60026020528060005260406000206000915090505481565b6000600160003373ffffffffffffffffffffffffffffffffffffffff1673ffffffffffffffffffffffffffffffffffffffff16815260200190815260200160002054146109a5576040517f08c379a000000000000000000000000000000000000000000000000000000000815260040161099c90611264565b60405180910390fd5b60e16000803373ffffffffffffffffffffffffffffffffffffffff1673ffffffffffffffffffffffffffffffffffffffff16815260200190815260200160002060008282546109f491906110eb565b9250508190555060e1600160003373ffffffffffffffffffffffffffffffffffffffff1673ffffffffffffffffffffffffffffffffffffffff1681526020019081526020016000206000828254610a4b91906110eb565b925050819055503373ffffffffffffffffffffffffffffffffffffffff167fcf0375f0196cb6bd6a740094742ce3ed8af508f979c9e85fd4578e0f7823515a60e16000803373ffffffffffffffffffffffffffffffffffffffff1673ffffffffffffffffffffffffffffffffffffffff16815260200190815260200160002054604051610ad9929190611315565b60405180910390a2565b600560003373ffffffffffffffffffffffffffffffffffffffff1673ffffffffffffffffffffffffffffffffffffffff16815260200190815260200160002060009054906101000a900460ff1680610b885750600460009054906101000a900473ffffffffffffffffffffffffffffffffffffffff1673ffffffffffffffffffffffffffffffffffffffff163373ffffffffffffffffffffffffffffffffffffffff16145b610bc7576040517f08c379a0000000000000000000000000000000000000000000000000000000008152600401610bbe90611008565b60405180910390fd5b826000808673ffffffffffffffffffffffffffffffffffffffff1673ffffffffffffffffffffffffffffffffffffffff168152602001908152602001600020541015610c48576040517f08c379a0000000000000000000000000000000000000000000000000000000008152600401610c3f9061139d565b60405180910390fd5b826000808673ffffffffffffffffffffffffffffffffffffffff1673ffffffffffffffffffffffffffffffffffffffff1681526020019081526020016000206000828254610c9691906110b7565b925050819055508373ffffffffffffffffffffffffffffffffffffffff167fc80dfea96dcb5809c10475b2e4a2c008bdea17352721ceca1392d230e2e20cfd8484846000808a73ffffffffffffffffffffffffffffffffffffffff1673ffffffffffffffffffffffffffffffffffffffff16815260200190815260200160002054604051610d27949392919061116c565b60405180910390a250505050565b60008060008373ffffffffffffffffffffffffffffffffffffffff1673ffffffffffffffffffffffffffffffffffffffff168152602001908152602001600020549050919050565b600080fd5b600080fd5b600073ffffffffffffffffffffffffffffffffffffffff82169050919050565b6000610db282610d87565b9050919050565b610dc281610da7565b8114610dcd57600080fd5b50565b600081359050610ddf81610db9565b92915050565b600060208284031215610dfb57610dfa610d7d565b5b6000610e0984828501610dd0565b91505092915050565b6000819050919050565b610e2581610e12565b82525050565b6000602082019050610e406000830184610e1c565b92915050565b610e4f81610e12565b8114610e5a57600080fd5b50565b600081359050610e6c81610e46565b92915050565b600080fd5b600080fd5b600080fd5b60008083601f840112610e9757610e96610e72565b5b8235905067ffffffffffffffff811115610eb457610eb3610e77565b5b602083019150836001820283011115610ed057610ecf610e7c565b5b9250929050565b60008060008060608587031215610ef157610ef0610d7d565b5b6000610eff87828801610dd0565b9450506020610f1087828801610e5d565b935050604085013567ffffffffffffffff811115610f3157610f30610d82565b5b610f3d87828801610e81565b925092505092959194509250565b610f5481610da7565b82525050565b6000602082019050610f6f6000830184610f4b565b92915050565b60008115159050919050565b610f8a81610f75565b82525050565b6000602082019050610fa56000830184610f81565b92915050565b600082825260208201905092915050565b7f4e6f7420617574686f7269736564000000000000000000000000000000000000600082015250565b6000610ff2600e83610fab565b9150610ffd82610fbc565b602082019050919050565b6000602082019050818103600083015261102181610fe5565b9050919050565b7f4e487b7100000000000000000000000000000000000000000000000000000000600052601260045260246000fd5b7f4e487b7100000000000000000000000000000000000000000000000000000000600052601160045260246000fd5b600061109182610e12565b915061109c83610e12565b9250826110ac576110ab611028565b5b828204905092915050565b60006110c282610e12565b91506110cd83610e12565b92508282039050818111156110e5576110e4611057565b5b92915050565b60006110f682610e12565b915061110183610e12565b925082820190508082111561111957611118611057565b5b92915050565b82818337600083830152505050565b6000601f19601f8301169050919050565b600061114b8385610fab565b935061115883858461111f565b6111618361112e565b840190509392505050565b60006060820190506111816000830187610e1c565b818103602083015261119481858761113f565b90506111a36040830184610e1c565b95945050505050565b7f4e6f74206f776e65720000000000000000000000000000000000000000000000600082015250565b60006111e2600983610fab565b91506111ed826111ac565b602082019050919050565b60006020820190508181036000830152611211816111d5565b9050919050565b7f416c726561647920636c61696d65640000000000000000000000000000000000600082015250565b600061124e600f83610fab565b915061125982611218565b602082019050919050565b6000602082019050818103600083015261127d81611241565b9050919050565b6000819050919050565b6000819050919050565b60006112b36112ae6112a984611284565b61128e565b610e12565b9050919050565b6112c381611298565b82525050565b7f77656c636f6d655f626f6e757300000000000000000000000000000000000000600082015250565b60006112ff600d83610fab565b915061130a826112c9565b602082019050919050565b600060608201905061132a60008301856112ba565b818103602083015261133b816112f2565b905061134a6040830184610e1c565b9392505050565b7f496e73756666696369656e7420706f696e747300000000000000000000000000600082015250565b6000611387601383610fab565b915061139282611351565b602082019050919050565b600060208201905081810360008301526113b68161137a565b905091905056fea2646970667358221220cb1415b5be0520371f6d44997543b3214c8241f184cb9a61df454d074fab604564736f6c63430008180033",
  "linkReferences": {},
  "deployedLinkReferences": {}
}